:1000000000308A002A2B0000FF00030E8301A600A7
:100010007F08A5000A08AD008A01A50E0408A70004
:100020002008A8002108A9002208AA002308AB0084
:100030002408AC00831383128B1D20280B1837284B
:100040008B1E24280B193928270884002808A000B3
:100050002908A1002A08A2002B08A3002C08A4004C
:100060002D088A00260E8300FF0E7F0E09008A11DC
:10007000002A8A1157280A108A100A1182070034B0
:100080001034203430344034503460347034803490
:1000900090340A108A100A118207003401340234A5
:1000A00003340434053406340734083409340108B1
:1000B000833EBB003B088100B20AB30A32080B3C06
:1000C00003186C28B108031D6C28AE0A0319AF0A87
:1000D000B2010130B100752832080C3C03187528B4
:1000E000AE0A0319AF0AB201B10133087D3C031D0A
:1000F0007B28B40AB3010B118A1124288E30A0008A
:100100004408A1004308A200A301A108031D9228EE
:100110002208A100A2010830A002A108031D922814
:10012000A0019A280310A11B9928A20DA10DA003DC
:100130009228A11300008A11292A470803190D29C2
:10014000CF004B0803190D29CF070318AE287F30C5
:10015000CF02031C0D2903190D29B2288130CF07C6
:1001600003180D294F08A000A101A201A30148080E
:10017000D300D3174908D2004A08D1001830CF0065
:10018000D001511CDB284E08A307031CCD28A20A6E
:10019000031DCD28A10A0319D0174D08A207031C7F
:1001A000D428A10A0319D0174C08C900C917490857
:1001B000A1070318D017D00DA10CA20CA30CD30CCF
:1001C000D20CD10C0310CF0BC0280130A0070318AC
:1001D0000D29A11BF228D30DA30DA20DA10DA00383
:1001E00003190D29D31F0329A30A031D0329A20AFA
:1001F000031D0329A10A031D0329A10CA20CA30CB2
:10020000A00A03190D294808D0004C08D006D01FB9
:100210000B29A1171129A1131129A001A101A201E4
:10022000A3010000003447080319D829D3004B0864
:100230000319D829D302031C22297F30D3070318BE
:10024000D82928298130D302031CD8290319D82999
:100250005308A000A101A201A301D2014808D100C6
:10026000D1174908D0004A08CF001930D3004E08F2
:10027000CF0203184B290130D00203184B29D102B9
:1002800003184B29D20203184B29D20AD10AD00AEB
:100290004E08CF077D294D08D0020318662901308A
:1002A000D10203186629D20203186629D20AD10A9C
:1002B0004D08D0074E08CF07031C7D29D00A031D27
:1002C0007D29D10A031D7D29D20A7D294C08803859
:1002D000D10203187C290130D20203187C29D20AEA
:1002E0004C088038D1074D08D007031C5A29D10A81
:1002F000031D5A29D20A5A292314D30B80298B298A
:100300000310CF0DD00DD10DD20D0310A30DA20DF2
:10031000A10DD40D3729541C93290310A10CA20C54
:10032000A30CD40C9629A0030319D829D41BBF29E8
:100330000310CF0DD00DD10DD20D4E08CF020318F2
:10034000AB290130D0020318AB29D1020318AB2925
:10035000D202031CCE294D08D0020318B629013061
:10036000D1020318B629D202031CCE294C088038CA
:10037000D1020318BF290130D202031CCE29A30ADF
:10038000031DCE29A20A031DCE29A10A031DCE29D1
:10039000A00A0319D829A10CA20CA30C4808D30069
:1003A0004C08D306D31FD629A117DC29A113DC29B9
:1003B000A001A101A201A30100008A114F2A8E30E1
:1003C000A0003D08A0023E08A2003F08A100A2171D
:1003D000A0080319F6290310A208031DF229A10899
:1003E0000319F629A20CA10CA00BEB29BE1FFD29B5
:1003F000A109A209A10A0319A20A00008A117F2AF1
:100400008316861600308312861A0130003A031DC7
:100410000C2AAF01AE01B00183160617003083121B
:10042000061B0130003A031D892AB4012F08BE00C3
:100430002E08BD00BF01C001C101C201BD08031DDE
:10044000242ABE080319572A3E08C4003D08C300E9
:100450007E282008C3002108C4002208C500230804
:10046000C600CA002208C9002108C8002008C70029
:10047000CE01CD014830CC008530CB009D20CA0193
:100480004030C9001C30C8008E30C7002308CE00A1
:100490002208CD002108CC002008CB001329230816
:1004A000C2002208C1002108C0002008BF00420885
:1004B000CA004108C9004008C8003F08C7006630AC
:1004C000CE00CD00CC008030CB009D202308C200A0
:1004D0002208C1002108C0002008BF003F08A0007A
:1004E0004008A1004108A2004208A3002308C00060
:1004F0002208BF002108BE002008BD00DF29210816
:10050000B00030083C3C0318892A83160810831277
:100510000814FF308316860083120608BC000B10F7
:100520008A11242883160108C03903388100E83075
:1005300083128B04833081000030B500831687005E
:10054000831287018A113D2B3908A1013802031853
:10055000AC2A3808A000B82AA0010830BA00B80DAB
:10056000A00D390820020318A000A10DBA0BAF2A74
:100570008A110C2BA001A101380803103918A0071B
:10058000A00CA10CB918A007A00CA10C3919A00748
:10059000A00CA10CB919A007A00CA10C391AA00736
:1005A000A00CA10CB91AA007A00CA10C391BA00724
:1005B000A00CA10CB91BA007A00CA10C8A11132B35
:1005C000B4080319EB2A3408013C031CEB2A8316F8
:1005D0000810831208103408023C0318FA2AB401E8
:1005E0000030B50083168700831287018316081038
:1005F00083120810B0080319272BB601B701300881
:10060000623C0318072B0930B600B700162B3008E0
:10061000B8000A30B900A42A2108B6003608B8008C
:100620000A30B900BA2A21083002B70036083B2048
:10063000B80037084920A10038082104B90000306B
:10064000B50083168700831239088700B001E02ABD
:100650008A113E2B84011F30830583161F149F14BB
:100660001F159F118312AE01AF01B001B101B2019C
:0E067000B301B401FF30B500922AE02A630006
:02400E00F93F78
:00000001FF
;PIC16F874
