:1000000000308A00262D0000FF00030E8301A600A9
:100010007F08A5000A08AD008A01A50E0408A70004
:100020002008A8002108A9002208AA002308AB0084
:100030002408AC00831383128B1D20280B1837284B
:100040008B1E24280B193928270884002808A000B3
:100050002908A1002A08A2002B08A3002C08A4004C
:100060002D088A00260E8300FF0E7F0E09008A11DC
:10007000EC2B8A1192280A108A100A118207003488
:100080001034203430344034503460347034803490
:1000900090340A108A100A118207003401340234A5
:1000A000033404340534063407340834093410307A
:1000B000A000A301D301D00CCF0C031C652851086C
:1000C000A3070318D30A5208D307D30CA30CA20C1E
:1000D000A10CA00B5B280034A101A201A001A30187
:1000E0005408031D76285308031990281030D500B2
:1000F0000310D10DD20DA00DA30D54082302031D32
:10010000832853082002031C8C285308A002031CD8
:10011000A3035408A3020314A10DA20DD50B782844
:10012000000000340108833ECE004E088100B60A6C
:10013000B70A36080B3C0318AA28B508031DAA28DD
:10014000AF0A0319B00AB10A0319B20AB6010130A5
:10015000B500B62836080C3C0318B628AF0A0319B8
:10016000B00AB10A0319B20AB601B50137087D3CDD
:10017000031D0B2AB80A38080F3C031D66290F30EF
:10018000BF003E08D0003D08CF00D2010630D100AC
:1001900057202208CF002108CE004F08D2004E0879
:1001A000D100D4010A30D3006C202208A30021081A
:1001B0003D07A1000318A30A3E08A30723083C0239
:1001C000031CEB28031DE8283B0821020318EB2839
:1001D0002830BF0066293E08D0003D08CF00D2017C
:1001E0000330D10057202208CF002108CE004F084D
:1001F000D2004E08D100D4010A30D3006C2022086E
:10020000A30021083D07A1000318A30A3E08A30785
:1002100023083C02031C3C29031D12293B08210230
:1002200003183C293E08D0003D08CF00D20106301B
:10023000D10057202208D0002108CF005008D2005A
:100240004F08D100D4010A30D3006C202208A3004B
:1002500021083D07A1000318A30A3E08A3073C0894
:100260002302031C3C29031D39293B082102031CDE
:100270003C292330BF0066293E08D0003D08CF004E
:10028000D2010330D10057202208CF002108CE0030
:100290004F08D2004E08D100D4010A30D3006C20A0
:1002A0002208A30021083D07A1000318A30A3E0865
:1002B000A30723083C02031C6629031D63292108A8
:1002C0003B02031C66291E30BF006629B701C60821
:1002D000031D6D290130C6006E29C601C30803192C
:1002E0007329C303D3294408033C031D912900301B
:1002F0002E180130003A031D862983160812831236
:10030000081683160813831208138E298316881281
:10031000831288168316881383128813B901C403C5
:10032000D329C40803199629C403D329C50803197E
:10033000AB2983160811831208158316081283123D
:100340000812831688118312881583168812831267
:100350008812C503D329B901BA0100302E18013023
:10036000003A031DC1298316881183128811831650
:100370008813831288174008C3002E14BE01BD01E4
:10038000CE298316081183120811831608138312CD
:1003900008173F08C3002E10BC01BB010330C40086
:1003A0000130C500B801C608031DDB29831685127C
:1003B00083128512DF298316851283128516C108E0
:1003C0000319F5294108033C031DF429831608107D
:1003D00083120810C208031DF3290030C7008316DA
:1003E000870083128701C101C10AC20803190B2AC1
:1003F0004208033C031D0A2A8316881083128810C2
:10040000C108031D092A0030C70083168700831224
:100410008701C201C20A0B118A1124288E30A00064
:100420005E08A1005D08A200A301A108031D222A05
:100430002208A100A2010830A002A108031D222A5F
:10044000A0012A2A0310A11B292AA20DA10DA00395
:10045000222AA11300008A117E2B610803199D2A0C
:10046000E900650803199D2AE90703183E2A7F3031
:10047000E902031C9D2A03199D2A422A8130E907BB
:1004800003189D2A6908A000A101A201A301620826
:10049000ED00ED176308EC006408EB001830E9008C
:1004A000EA016B1C6B2A6808A307031C5D2AA20AD9
:1004B000031D5D2AA10A0319EA176708A207031C96
:1004C000642AA10A0319EA176608E300E317630820
:1004D000A1070318EA17EA0DA10CA20CA30CED0C5E
:1004E000EC0CEB0C0310E90B502A0130A0070318A9
:1004F0009D2AA11B822AED0DA30DA20DA10DA00323
:1005000003199D2AED1F932AA30A031D932AA20A09
:10051000031D932AA10A031D932AA10CA20CA30C6C
:10052000A00A03199D2A6208EA006608EA06EA1F83
:100530009B2AA117A12AA113A12AA001A101A2010E
:10054000A3010000003461080319682BED00650861
:100550000319682BED02031CB22A7F30ED07031844
:10056000682BB82A8130ED02031C682B0319682B15
:100570006D08A000A101A201A301EC016208EB003B
:10058000EB176308EA006408E9001930ED00680819
:10059000E9020318DB2A0130EA020318DB2AEB0226
:1005A0000318DB2AEC020318DB2AEC0AEB0AEA0A3E
:1005B0006808E9070D2B6708EA020318F62A0130DC
:1005C000EB020318F62AEC020318F62AEC0AEB0AEF
:1005D0006708EA076808E907031C0D2BEA0A031DF0
:1005E0000D2BEB0A031D0D2BEC0A0D2B6608803832
:1005F000EB0203180C2B0130EC0203180C2BEC0A55
:1006000066088038EB076708EA07031CEA2AEB0A4A
:10061000031DEA2AEC0AEA2A2314ED0B102B1B2BEC
:100620000310E90DEA0DEB0DEC0D0310A30DA20D67
:10063000A10DEE0DC72A6E1C232B0310A10CA20CDA
:10064000A30CEE0C262BA0030319682BEE1B4F2BDB
:100650000310E90DEA0DEB0DEC0D6808E902031833
:100660003B2B0130EA0203183B2BEB0203183B2B18
:10067000EC02031C5E2B6708EA020318462B0130CC
:10068000EB020318462BEC02031C5E2B6608803835
:10069000EB0203184F2B0130EC02031C5E2BA30A64
:1006A000031D5E2BA20A031D5E2BA10A031D5E2BF8
:1006B000A00A0319682BA10CA20CA30C6208ED0080
:1006C0006608ED06ED1F662BA1176C2BA1136C2B92
:1006D000A001A101A201A30100008A11A42BD9014C
:1006E000DA01DB01DC01D708031D792BD8080319D7
:1006F000AC2B5808DE005708DD000E2A2008DD006C
:100700002108DE002208DF002308E000E4002208C0
:10071000E3002108E2002008E100E801E701483099
:10072000E6008530E5002D22E4014030E3001C3076
:10073000E2008E30E1002308E8002208E7002108EB
:10074000E6002008E500A32A2308DC002208DB00DD
:100750002108DA002008D9005C08E4005B08E30007
:100760005A08E2005908E1006630E800E700E600B8
:100770008030E5002D222308DC002208DB00210860
:10078000DA002008D9005908A0005A08A1005B0827
:10079000A2005C08A30000348E30A0005708A0021D
:1007A0005808A2005908A100A217A0080319E32BBA
:1007B0000310A208031DDF2BA1080319E32BA20CD1
:1007C000A10CA00BD82BD81FEA2BA109A209A10AC2
:1007D0000319A20A000000348316061600308312A3
:1007E000061A0130003A031D0D2CB001AF01B30110
:1007F00000302E180130003A031D012CBB0A0319EA
:10080000BC0A00302E180130013C031D0D2C83164C
:100810000810831208140130C10083160617003037
:100820008312061B0130003A031D2E2CB201B101C8
:10083000B40100302E180130013C031D222CBD0AEA
:100840000319BE0A00302E180130003A031D2E2C69
:1008500083168810831288140130C200831686160E
:1008600000308312861A0130003A031D512C3008E3
:10087000D8002F08D7006F232308DA002208D900F8
:100880002108D8002008D700CC232108B300330862
:100890003C3C03184F2C83160810831208140130B7
:1008A000C1008316861700308312861B0130003A80
:1008B000031D742C3208D8003108D7006F23230899
:1008C000DA002208D9002108D8002008D700CC235C
:1008D0002108B40034083C3C0318722C831688109D
:1008E000831288140130C200FF3083168600831201
:1008F0000608D6000B108A11242883160108C03977
:1009000003388100E83083128B048330810000308B
:10091000C70083168700831287012E1083160813E1
:1009200083120817831688118312881583160812FC
:1009300083120812831688128312881283160811F4
:100940008312081183168813831288133F08C3008B
:100950000330C4000130C5008A114B2D4C08A101A1
:100960004B020318B62C4B08A000C22CA001083083
:10097000CD00CB0DA00D4C0820020318A000A10D46
:10098000CD0BB92C8A11F92CA001A1014B08031041
:100990004C18A007A00CA10CCC18A007A00CA10C0F
:1009A0004C19A007A00CA10CCC19A007A00CA10CFD
:1009B0004C1AA007A00CA10CCC1AA007A00CA10CEB
:1009C0004C1BA007A00CA10CCC1BA007A00CA10CD9
:1009D0008A11002DC901CA014808623C0318F42C91
:1009E0000930C900CA00032D4808CB000A30CC00EA
:1009F000AE2C2108C9004908CB000A30CC00C42C19
:100A000021084802CA0049083B20CB004A08492077
:100A1000A1004B082104CC000030C70083168700DA
:100A200083124C088700C8010034B30803191C2D39
:100A30003308C800EA24B301B4080319232D34088D
:100A4000C800EA24B401152D8A114C2D84011F30F1
:100A5000830583161F149F141F159F118312AF0166
:100A6000B001B101B201B301B401B501B601B701E2
:100A7000B801B901BA01BB01BC01BD01BE010F3013
:100A8000BF00C000C101C201C301C401C501C6014C
:0A0A9000FF30C7007D2C152D630018
:02400E00F93F78
:00000001FF
;PIC16F874
