:1000000000308A009D290000FF00030E8301A60036
:100010007F08A5000A08AD008A01A50E0408A70004
:100020002008A8002108A9002208AA002308AB0084
:100030002408AC00831383128B1D20280B1837284B
:100040008B1E24280B193928270884002808A000B3
:100050002908A1002A08A2002B08A3002C08A4004C
:100060002D088A00260E8300FF0E7F0E09008A11DC
:100070005F288A1157280A108A100A118207003453
:100080001034203430344034503460347034803490
:1000900090340A108A100A118207003401340234A5
:1000A00003340434053406340734083409340108B1
:1000B000833EC200420881000B118A112428831656
:1000C00005150030831205190130003A031D7C2804
:1000D0002E08003A03197328013A03197628033AC7
:1000E000031979287C280130AE007C280230AE004C
:1000F0007C282F08AE007C28831606160030831259
:10010000061A0130003A031D9128B508031D9128F5
:1001100083168511831285150130B500AF0A0319C6
:10012000B00A8316861600308312861A0130003A10
:10013000031DA428350BA428831685118312851569
:10014000B501B30A0319B40A8316061700308312E7
:10015000061B0130003A031DB928B608031DB92853
:1001600083160512831205160130B600B10A031971
:10017000B20A8316861700308312861B0130003ABC
:10018000031DC928360BC9288316051283120516CC
:10019000B601FF308316860083120608C3000B10D9
:1001A0008A11242883160108C03903388100E830F9
:1001B00083128B04833081000030B70083168700E0
:1001C0008312870183168800831288010230AE00F3
:1001D0008A11B129A101A201A001A3014008031DB8
:1001E000F4283F0803190E291030C1000310BD0D7B
:1001F000BE0DA00DA30D40082302031D01293F08D9
:100200002002031C0A293F08A002031CA303400884
:10021000A3020314A10DA20DC10BF62800000034A7
:10022000A001A1013D0803103E18A007A00CA10CDD
:10023000BE18A007A00CA10C3E19A007A00CA10C91
:10024000BE19A007A00CA10C3E1AA007A00CA10C7F
:10025000BE1AA007A00CA10C3E1BA007A00CA10C6D
:10026000BE1BA007A00CA10C8A117E29B801B90100
:10027000BA01BB01BC012E08003A03194629013A14
:1002800003194B29033A0319502955293008B9009D
:100290002F08B80055293208B9003108B80055298F
:1002A0003408B9003308B80055293908023C03184E
:1002B0006529FF3A031D60293808E63C03186529C3
:1002C0000930BA00BB00BC0081293908BE003808DB
:1002D000BD00C0016430BF00EA202108BA0039081F
:1002E000BE003808BD00C0010A30BF00EA20210866
:1002F000BB003B08BD000A30BE00102921083802AF
:10030000BC003B083B20BD003C084920A1003D0843
:100310002104BE000030B7008316870083123E0818
:1003200087003A084920BD000030831688008312F8
:100330003D08880036298A11B22984011F308305BF
:1003400083161F149F141F159F118312AF01B00154
:10035000B101B201B301B401B501B601FF30B7007C
:06036000D22836296300DB
:02400E00F93F78
:00000001FF
;PIC16F874
