:1000000000308A00422A0000FF00030E8301A60090
:100010007F08A5000A08AD008A01A50E0408A70004
:100020002008A8002108A9002208AA002308AB0084
:100030002408AC00831383128B1D20280B183B2847
:100040000B1E24288B183D288B1E28280B193F28AF
:10005000270884002808A0002908A1002A08A20077
:100060002B08A3002C08A4002D088A00260E83006C
:10007000FF0E7F0E09008A11D0288A11A7288A1145
:100080005D280A108A100A118207003410342034C7
:1000900030344034503460347034803490340A103A
:1000A0008A100A1182070034013402340334043404
:1000B000053406340734083409340108833EC70088
:1000C0004708810083168614003083128618013099
:1000D000003A031D862833083102A0003208A3002D
:1000E0003408031C340FA3022008A1002F082302A8
:1000F000031C8028031D7F282E0821020318A42832
:100100003508023C031986280130B5008316061510
:100110000030831206190130003A031DA428330869
:100120003102C7003208C8003408031C340FC8026B
:10013000C708031D9E28C8080319A4283608023CD6
:100140000319A4280130B6000B118A112828831640
:1001500086150030831286190130003A031DCD2820
:1001600033083102A0003208A3003408031C340F06
:10017000A3022008A1002F082302031CC528031D89
:10018000C4282E0821020318CD28350BCD2883164C
:100190000510831205140230B5008B108A1128282F
:1001A0008316861600308312861A0130003A031D2A
:1001B000EC283008003A0319E428013A0319E7282B
:1001C000033A0319EA28EC280130B000EC28023089
:1001D000B000EC28B001EC2883160616003083121C
:1001E000061A0130003A031D1A293508023C031D86
:1001F0001A298316051083120510B501B10A0319D7
:10020000B20A33083102A0003208A3003408031CEC
:10021000340FA3022008A1002F082302031C1A296F
:10022000031D16292E082102031C1A298316051105
:10023000831205158316061700308312061B013042
:10024000003A031D3A2933083102CB003208CC00B2
:100250003408031C340FCC02CB08031D3229CC0810
:1002600003195929360B3A298316851083128514F0
:100270000230B6008316861700308312861B0130C9
:10028000003A031D53293608023C031D53298316E7
:100290008510831285108316051183120511B6018E
:1002A000B30A0319B40AFF308316860083120608C6
:1002B000CA000B108A11282883160108C039033898
:1002C0008100F83083128B04833081000030B70046
:1002D00083168700831287018316880083128801A2
:1002E0000230B0008A11582AA101A201A001A30185
:1002F0004308031D7E294208031998291030C400C1
:100300000310C00DC10DA00DA30D43082302031D52
:100310008B2942082002031C94294208A002031CD6
:10032000A3034308A3020314A10DA20DC40B80294B
:10033000000000341030A000A301C601C30CC20CA1
:10034000031CA8294408A3070318C60A4508C607C2
:10035000C60CA30CA20CA10CA00B9E290034B80162
:10036000B901BA01BB01BC01BD01BE01BF0130082A
:10037000003A0319C229013A0319C729033A03199C
:10038000CC29D6293208B9003108B800D62934085A
:10039000B9003308B800D62933083102B800320852
:1003A000B9003408031C340FB902D6293908023CBD
:1003B0000318E929FF3A031DE1293808E63C031830
:1003C000E929BB010930BA00BD01BC00BF01BE0074
:1003D000252A3908C1003808C000C3016430C200B2
:1003E00074212208BB002108BA003908C10038086E
:1003F000C000C3010A30C20074212208BD002108D8
:10040000BC003D08C3003C08C200C5010A30C4005E
:100410009A212208A30021083802C0003908C1002F
:100420002208031C220FC1023B08C3003A08C20085
:10043000C5016430C4009A2121084002BE00410871
:10044000BF002208031C220FBF023C084120C0004D
:100450003E084F20A10040082104C1000030B70031
:10046000831687008312410887003A084F20A100B5
:10047000C000003083168800831240088800AF292E
:100480008A11592A84011F30830583161F149F1473
:100490001F159F1164308312AE00AF016330B100AD
:1004A000B201B301B401B501B601FF30B7005C2958
:0404B000AF2963000D
:02400E00F93F78
:00000001FF
;PIC16F874
